S0130000466972652053797374656D2E73726563E6
S11300000C942A000C9447000C9447000C9447006D
S11300100C9447000C9447000C9447000C94470040
S11300200C9447000C9447000C9447000C94470030
S11300300C9447000C9447000C9447000C94470020
S11300400C9447000C9447000C9447000C94470010
S11300500C94470011241FBECFE5D8E0DEBFCDBF0E
S113006011E0A0E6B0E0E8EBFBE002C005900D92E1
S1130070A031B107D9F721E0A0E1B1E001C01D92A0
S1130080A231B207E1F70E9438020C94DA050C940D
S1130090000061E088E10E94FA0361E089E10E94C6
S11300A0FA0361E08AE10E94FA0361E08BE10C94B7
S11300B0FA03DF92EF92FF920F931F93CF93DF9394
S11300C090E6E92E90E0F92EC8E1D4E560E08C2FAB
S11300D00E94FA0300E010E08CE1D82ED00E8D2DA2
S11300E00E947B04811109C0F701E00FF11FD08148
S11300F08D2D0E947B048823D9F30F5F1F4F04309A
S1130100110551F761E08C2F0E94FA03CF5F84E060
S1130110E80EF11CCC31D1F68D2FDF91CF911F91D8
S11301200F91FF90EF90DF900895CF93C82F60E078
S11301308DE00E94FA036C2F661F6627661F88E015
S11301400E94FA03C6FB662760F989E00E94FA035D
S1130150C5FB662760F98AE00E94FA03C4FB6627A0
S113016060F98BE00E94FA0361E08CE00E94FA03DC
S11301708FEC97E00197F1F700C0000060E08CE09D
S11301800E94FA038FEC97E00197F1F700C000009A
S1130190C3FB662760F988E00E94FA03C2FB662766
S11301A060F989E00E94FA03C1FB662760F98AE0DE
S11301B00E94FA036C2F61708BE00E94FA0361E0E5
S11301C08CE00E94FA038FEC97E00197F1F700C0EE
S11301D0000060E08CE00E94FA038FEC97E0019746
S11301E0F1F700C00000CF910895CF93C82F61E0CC
S11301F08DE00E94FA036C2F661F6627661F88E055
S11302000E94FA03C6FB662760F989E00E94FA039C
S1130210C5FB662760F98AE00E94FA03C4FB6627DF
S113022060F98BE00E94FA0361E08CE00E94FA031B
S11302308FEC97E00197F1F700C0000060E08CE0DC
S11302400E94FA038FEC97E00197F1F700C00000D9
S1130250C3FB662760F988E00E94FA03C2FB6627A5
S113026060F989E00E94FA03C1FB662760F98AE01D
S11302700E94FA036C2F61708BE00E94FA0361E024
S11302808CE00E94FA038FEC97E00197F1F700C02D
S1130290000060E08CE00E94FA038FEC97E0019785
S11302A0F1F700C00000CF9108952FE788E391E0B3
S11302B0215080409040E1F700C0000082E00E949D
S11302C0950088E20E9495008CE00E94950081E0F0
S11302D00E9495008FEC97E00197F1F700C00000B1
S11302E086E00C9495000C94F50081E00E94950042
S11302F08FEC97E00197F1F700C0000008954F924A
S11303005F926F927F92AF92BF92CF92DF92EF9201
S1130310FF921F93CF93DF93CDB7DEB764970FB6E9
S1130320F894DEBF0FBECDBF6B017C016115710572
S113033081059105B1F480E364960FB6F894DEBFAD
S11303400FBECDBFDF91CF911F91FF90EF90DF9053
S1130350CF90BF90AF907F906F905F904F900C9430
S1130360F50097FF0BC0F094E094D094C094C11CA6
S1130370D11CE11CF11C8DE20E94F50010E09AE012
S1130380492E512C612C712CAA24A394B12CAC0EAF
S1130390BD1EA10EB11CC701B601A30192010E94AA
S11303A0AC05605DF501608369017A0181E0810F2C
S11303B0C114D104E104F10411F0182FE5CFF12E9A
S11303C0F7FC0DC0E1E0F0E0EC0FFD1FEF0DF11DB7
S11303D0F7FCFA9580810E94F500FA94F1CF6496B7
S11303E00FB6F894DEBF0FBECDBFDF91CF911F9142
S11303F0FF90EF90DF90CF90BF90AF907F906F9081
S11304005F904F9008950F931F93CF938C01C0E09A
S1130410F801EC0FF11D8081882321F00E94F50082
S1130420CF5FF6CFCF911F910F910895811102C034
S113043080E803C0813021F480EC860F0C94950091
S1130440089580E00C94E90382E00E94DD039C019E
S113045027533109A8EEB3E00E94CB0529E933E024
S113046040E050E00E948A05C9018A569F4F0895D2
S11304700E9498040E94550166E081E00E94BD0339
S11304800E9449008FEF84BB60E080E00E94160266
S113049080E790E00E9403022FE78AE196E0215072
S11304A080409040E1F700C0000080E010E0C0E030
S11304B0D0E09AE0B92E2AE0C22ED12C8111FECFD1
S11304C00E9421027C0160E080E00E94160281E823
S11304D090E00E94030267E080E00E941602C701D8
S11304E0B6010E9476054C0180E090E00E947F01F5
S11304F08EE20E947301B40180E090E00E947F01CB
S113050028E6E21621E0F20638F46CE080E00E946E
S1130510160287E890E016C088E6E81A81E0F80A37
S11305209CE8E916F104A8F46CE080E00E9416024D
S113053087E890E00E94030260E081E00E941602D6
S11305408CE890E00E940302A898A998AA98AB9816
S1130550B7CF0E9424027C0160E081E00E94160271
S11305608DE990E00E94030266E081E00E94160299
S1130570C701B6010E9476054C0180E090E00E941C
S11305807F018EE20E947301B40180E090E00E943A
S11305907F012AE8E21622E0F206A8F5A89AA998B3
S11305A0AA98AB986CE080E00E94160288E990E07B
S11305B00E9403026CE081E00E94160284EA90E04B
S11305C00E9403020E9424027C0160E081E00E94F8
S11305D016028DE990E00E94030266E081E00E9429
S11305E01602C701B6010E9476057C0180E090E006
S11305F00E947F018EE20E947301B70180E090E0C7
S11306000E947F015DCFA898A99AAA9A6CE080E025
S11306100E94160288E990E00E9403026CE081E0E7
S11306200E94160289EA90E00E9403020E942402BA
S11306307C0160E081E00E9416028DE990E00E9456
S1130640030266E081E00E941602C701B6010E941F
S113065076057C0180E090E00E947F018EE20E949A
S11306607301B70180E090E00E947F010E94750150
S1130670AB9A60E080E00E9416028EEA90E00E944D
S1130680030260E081E00E9416028FEB90E00E947A
S11306900302FF24F3940E945900082F843519F4AF
S11306A0F110F9CFE3CF66E0610F81E00E941602FA
S11306B0802F0E9473011F5F80ED800F8A3050F4F9
S11306C0BC9EC001BD9E900D1124EC01E097C00FAB
S11306D0D11DE6CF0D3321F760E0C937D240B1F424
S11306E081E00E94160285EC90E00E9403029FE7DD
S11306F02AE186E0915020408040E1F700C00000EC
S11307000E94750110E0C0E0D0E0DACE81E00E94E2
S1130710160283ED90E00E9403029FE72AE186E03F
S1130720915020408040E1F700C0000060E081E08B
S11307300E94160281EE90E00E9403029FE72AE1E4
S113074086E0915020408040E1F700C000000E9404
S1130750750160E080E00E9416028EEA90E00E943B
S1130760030260E081E00E9416028FEB90E00E9499
S1130770030210E0C0E0D0E093CF96B1987F96B921
S113078096B16770692B66B9813069F038F08230B0
S113079091F43E9A3F9A80E09AE009C03E983F98CF
S11307A088EB9BE004C03E9A3F9888E893E19093DD
S11307B0110180931001379A089597B1907E97B9EB
S11307C097B1892B87B9369A3699FECF84B195B102
S11307D008950E94DD03A0911001B09111019C01C4
S11307E00E94CB052FEF33E040E050E00E948A05E1
S11307F0C9010895982F96959695969587706130BE
S1130800C1F5913091F028F09230D9F0933029F16C
S113081008954BB321E030E0B90102C0660F771FA1
S11308208A95E2F7CB01842B3AC048B321E030E04B
S1130830B90102C0660F771F8A95E2F7CB01842BBA
S11308403CC045B321E030E0B90102C0660F771F18
S11308508A95E2F7CB01842B3EC042B321E030E01D
S1130860B90102C0660F771F8A95E2F7CB01842B8A
S113087040C061113FC09130A1F028F09230F9F0EE
S1130880933059F108954BB321E030E0B90102C02F
S1130890660F771F8A95E2F7CB01809584238BBB83
S11308A0089548B321E030E0B90102C0660F771F14
S11308B08A95E2F7CB018095842388BB089545B3DC
S11308C021E030E0B90102C0660F771F8A95E2F794
S11308D0CB018095842385BB089542B321E030E0A9
S11308E0B90102C0660F771F8A95E2F7CB018095A4
S11308F0842382BB0895282F277086958695869534
S1130900813049F030F0823041F0833079F480B3A3
S113091005C089B303C086B301C083B390E002C0AD
S1130920959587952A95E2F78170089580E008955A
S1130930EFEEF0E040E081E090E05191342F369505
S113094036953695242F2770513009F443C020F092
S1130950523009F482C0C5C0323001F1333061F144
S1130960313071F05AB3BC0102C0660F771F2A956B
S1130970E2F79B01352F322B3ABB3BB320953DC0A8
S113098057B3BC0102C0660F771F2A95E2F79B019B
S1130990352F322B37BB38B320953EC054B3BC013E
S11309A002C0660F771F2A95E2F79B01352F322B81
S11309B034BB35B320953FC051B3BC0102C0660FB0
S11309C0771F2A95E2F79B01352F322B31BB32B3C7
S11309D0209541C0323011F1333081F1313079F05A
S11309E05AB3BC0102C0660F771F2A95E2F79B0138
S11309F02095352F32233ABB3BB3232342C057B350
S1130A00BC0102C0660F771F2A95E2F79B0120956F
S1130A10352F322337BB38B3232343C054B3BC012F
S1130A2002C0660F771F2A95E2F79B012095352FA8
S1130A30322334BB35B3232325BB53C051B3BC018C
S1130A4002C0660F771F2A95E2F79B012095352F88
S1130A50322331BB32B3232343C0323021F133304C
S1130A6089F1313081F05AB3BC0102C0660F771F9F
S1130A702A95E2F79B01362F309535233ABB3BB3D9
S1130A80232B2BBB2EC057B3BC0102C0660F771FAC
S1130A902A95E2F79B01362F3095352337BB38B3BF
S1130AA0232B28BB1EC054B3BC0102C0660F771FA2
S1130AB02A95E2F79B01362F3095352334BB35B3A5
S1130AC0232BBACF51B3BC0102C0660F771F2A95FE
S1130AD0E2F79B01362F3095352331BB32B3232BFC
S1130AE022BB4F5F403209F028CF0895AA1BBB1BDD
S1130AF051E107C0AA1FBB1FA617B70710F0A61B1A
S1130B00B70B881F991F5A95A9F780959095BC013A
S1130B10CD010895A1E21A2EAA1BBB1BFD010DC035
S1130B20AA1FBB1FEE1FFF1FA217B307E407F50799
S1130B3020F0A21BB30BE40BF50B661F771F881F75
S1130B40991F1A9469F760957095809590959B010B
S1130B50AC01BD01CF010895052E97FB1EF400944E
S1130B600E94C30557FD07D00E948A0507FC03D0E5
S1130B704EF40C94C30550954095309521953F4F04
S1130B804F4F5F4F089590958095709561957F4F75
S1130B908F4F9F4F0895A29FB001B39FC001A39FA1
S1130BA0700D811D1124911DB29F700D811D1124A2
S10B0BB0911D0895F894FFCF94
S1130BB83738392F3435362A3132332D63303D2BCB
S1130BC8202053797374656D2053746172742020E6
S1130BD80054656D703A0046494E45002020202097
S1130BE820202020202020202020202000536D6F4A
S1130BF86B653A00484541540046414952002E2E3F
S1130C082E2E2E2E464952452E2E2E2E2E2E005096
S1130C186173733A007061737320697320636F7230
S1130C28722E00706173732069732077726F6E6718
S1130C380074727920616761696E2E2E2E2E000170
S1130C480101000000010000000000000000000095
S1130C580000000000000000000000020202020080
S9030000FC
